{
  "_format": "hh-sol-artifact-1",
  "contractName": "Arbitrage",
  "sourceName": "contracts/Arbitrage.sol",
  "abi": [
    {
      "inputs": [],
      "stateMutability": "nonpayable",
      "type": "constructor"
    },
    {
      "inputs": [
        {
          "internalType": "uint256",
          "name": "amount",
          "type": "uint256"
        }
      ],
      "name": "executeArbitrage",
      "outputs": [
        {
          "internalType": "uint256",
          "name": "",
          "type": "uint256"
        }
      ],
      "stateMutability": "view",
      "type": "function"
    },
    {
      "inputs": [],
      "name": "mockPriceA",
      "outputs": [
        {
          "internalType": "uint256",
          "name": "",
          "type": "uint256"
        }
      ],
      "stateMutability": "view",
      "type": "function"
    },
    {
      "inputs": [],
      "name": "mockPriceB",
      "outputs": [
        {
          "internalType": "uint256",
          "name": "",
          "type": "uint256"
        }
      ],
      "stateMutability": "view",
      "type": "function"
    },
    {
      "inputs": [],
      "name": "owner",
      "outputs": [
        {
          "internalType": "address",
          "name": "",
          "type": "address"
        }
      ],
      "stateMutability": "view",
      "type": "function"
    },
    {
      "inputs": [
        {
          "internalType": "uint256",
          "name": "_priceA",
          "type": "uint256"
        },
        {
          "internalType": "uint256",
          "name": "_priceB",
          "type": "uint256"
        }
      ],
      "name": "setMockPrices",
      "outputs": [],
      "stateMutability": "nonpayable",
      "type": "function"
    }
  ],
  "bytecode": "0x608060405234801561001057600080fd5b50600080546001600160a01b03191633179055610212806100326000396000f3fe608060405234801561001057600080fd5b50600436106100575760003560e01c80630bbed9431461005c5780633da0daf214610078578063441f952a146100815780638da5cb5b14610096578063f7c7724f146100c1575b600080fd5b61006560025481565b6040519081526020015b60405180910390f35b61006560015481565b61009461008f366004610161565b6100d4565b005b6000546100a9906001600160a01b031681565b6040516001600160a01b03909116815260200161006f565b6100656100cf366004610183565b61012a565b6000546001600160a01b0316331461011f5760405162461bcd60e51b815260206004820152600a60248201526927b7363c9037bbb732b960b11b604482015260640160405180910390fd5b600191909155600255565b60006002546001541015610159578160015460025461014991906101b2565b61015391906101c5565b92915050565b506000919050565b6000806040838503121561017457600080fd5b50508035926020909101359150565b60006020828403121561019557600080fd5b5035919050565b634e487b7160e01b600052601160045260246000fd5b818103818111156101535761015361019c565b80820281158282048414176101535761015361019c56fea26469706673582212202143931eac49d39d63728e2b20c3d6f0fa61898a0848e0a204de695caa04ffb964736f6c63430008140033",
  "linkReferences": {},
  "deployedLinkReferences": {}
}